:100000000C94D4020C94FC020C94FC020C94FC02A0
:100010000C94FC020C94FC020C94FC020C94FC0268
:100020000C94FC020C94FC020C94FC020C94FC0258
:100030000C94FC020C94FC020C94FC020C94FC0248
:100040000C94D5090C94FC020C94450A0C941F0ADC
:100050000C94FC020C94FC020C94FC020C94FC0228
:100060000C94FC020C94FC024D454D4F3A20646503
:100070006D6172726167652E20526570726F647572
:100080006973657A206C612073657175656E63654F
:1000900020766961206C6520706176C3A9202841B3
:1000A00033292E004F5247414E45533A20436F7239
:1000B0007265637421004F5247414E45533A2046C2
:1000C0006175782C206573736179657A20656E633C
:1000D0006F72652E00524649443A20417070726F2B
:1000E0006368657A20756E20626164676520706F51
:1000F0007572206368616E67656D656E74206465F6
:10010000206D6F64652F646966666963756C7465DC
:100110002073656C6F6E20636F6E74657874652EE6
:100120000053595354454D453A20507265742E2062
:10013000426F75746F6E73202D3E20383A41737391
:10014000697374616E742C2041303A4D656D6F2C6B
:1001500020323A4F7267616E657300524649443AE5
:1001600020554944203D2000415353495354414EAA
:10017000543A20417563756E207468656D6520631F
:10018000686F6973692E00415353495354414E546B
:100190003A2064656D61727261676520626F756394
:1001A0006C6520706872617365732028626F757466
:1001B0006F6E203820706F75722061727265746581
:1001C00072292E00524649443A20626164676520D4
:1001D00073616E7320616374696F6E20636F6E74F8
:1001E00065787475656C6C652E00415353495354A2
:1001F000414E543A20626164676520696E636F6E98
:100200006E7520706F7572207468656D652E004183
:100210005353495354414E543A205468656D6520F8
:100220003D2053414E544500415353495354414E90
:10023000543A205468656D65203D2043554C545513
:10024000524500415353495354414E543A20546847
:10025000656D65203D2053504F525400524649442D
:100260003A204D6F6465206F7267616E6573203D43
:1002700020444946464943494C4520286261646709
:10028000652900524649443A204D6F6465206F72DB
:1002900067616E6573203D20464143494C452028E7
:1002A00062616467652900415353495354414E5478
:1002B0003A205175656C207468656D6520766F75A0
:1002C0006C657A2D766F7573203F20287363616E9D
:1002D00020626164676529004F5247414E45533A99
:1002E000204D6F646520464143494C45202861708C
:1002F000707579657A20737572206C657320626FF2
:1003000075746F6E7320332E2E3620706F757220C9
:10031000766F6972206C6573206F7267616E6573AA
:10032000292E004F5247414E45533A204D6F646588
:1003300020444946464943494C452028332071759D
:10034000657374696F6E7320612074726F75766562
:1003500072292E004F5247414E45533A2064656D35
:10036000617272616765206475206A65752E00414F
:100370007373697374616E74202853414E54452918
:100380003A2000417373697374616E742028435579
:100390004C54555245293A20004173736973746176
:1003A0006E74202853504F5254293A20004D454D29
:1003B0004F3A204120766F7573206465206A6F750F
:1003C00065722028656E7472657A206C6120736591
:1003D0007175656E636520737572206C6520706140
:1003E00076C3A9292E004D454D4F3A2046617578B8
:1003F00020212052656A6F75657A206C61207365D3
:100400007175656E63652E004D454D4F3A20427201
:1004100061766F20212053657175656E6365206379
:100420006F7272656374652E204E6F7576656C6CA5
:10043000652073657175656E63652E2E2E004D45C2
:100440004D4F3A20746F756368652076616C6964FE
:1004500065202D3E20004F5247414E45533A2053D0
:10046000657373696F6E207465726D696E65652E54
:100470000054726F7576657A3A205245494E0054A1
:10048000726F7576657A3A20464F49450054726F0F
:100490007576657A3A20504F554D4F4E5300547241
:1004A0006F7576657A3A20434F455552004F524753
:1004B000414E45533A205245494E004F5247414E16
:1004C00045533A20464F4945004F5247414E455308
:1004D0003A20504F554D4F4E53004F5247414E45D5
:1004E000533A20434F455552004A6575206F726755
:1004F000616E657320696E746572726F6D70752EB2
:10050000205265746F7572206D656E752E004D6595
:100510006D6F20696E746572726F6D70752E2052EA
:1005200065746F7572206D656E752E004173736909
:100530007374616E74206172726574652E205265E9
:10054000746F7572206D656E752E000000000024BA
:100550000027002A0000000000250028002B0000D2
:1005600000000023002600290004040404040404FD
:100570000402020202020203030303030301020452
:100580000810204080010204081020010204081015
:100590002000000008000201000003040700000022
:1005A000000000000000770A11241FBECFEFD8E042
:1005B000DEBFCDBF13E0A0E0B1E0ECE8FEE202C098
:1005C00005900D92A432B107D9F724E0A4E2B3E07C
:1005D00001C01D92A633B207E1F712E0C4EDD2E0EC
:1005E00004C02197FE010E942D14C33DD107C9F715
:1005F0000E94AE0A0C9444170C9400008CBD9DBD63
:100600000895833081F028F4813099F08230A9F088
:1006100008958730A9F08830C9F08430B1F4809112
:1006200080008F7D03C0809180008F778093800051
:10063000089584B58F7784BD089584B58F7DFBCFF1
:100640008091B0008F778093B00008958091B000C2
:100650008F7DF9CFCF93DF93282F30E0F901EF564C
:10066000FA4F8491F901E358FA4FD491F901E7590F
:10067000FA4FC491CC23A1F081110E940103EC2F09
:10068000F0E0EE0FFF1FE15AFA4FA591B491EC9103
:10069000ED2381E090E009F480E0DF91CF910895AF
:1006A00080E090E0FACF1F93CF93DF93282F30E0C4
:1006B000F901EF56FA4F8491F901E358FA4FD491BA
:1006C000F901E759FA4FC491CC23A9F0162F8111F3
:1006D0000E940103EC2FF0E0EE0FFF1FEB5AFA4FE0
:1006E000A591B4918FB7F894EC91111108C0D095F1
:1006F000DE23DC938FBFDF91CF911F910895DE2B16
:10070000F8CFCF93DF9390E0FC01E358FA4F2491A8
:1007100087599A4FFC0184918823C9F090E0880F93
:10072000991FFC01E55BFA4FA591B491FC01EB5ACE
:10073000FA4FC591D49161110DC09FB7F8948C9177
:10074000209582238C938881282328839FBFDF9163
:10075000CF910895623051F49FB7F8943C91822F65
:10076000809583238C93E8812E2BEFCF8FB7F8945D
:10077000EC912E2B2C938FBFEACF8E508064809308
:100780007C0080917A00806480937A0080917A0066
:1007900086FDFCCF809178009091790008953FB755
:1007A000F8948091810390918203A0918303B0918A
:1007B000840326B5A89B05C02F3F19F00196A11D03
:1007C000B11D3FBFBA2FA92F982F8827BC01CD019B
:1007D000620F711D811D911D42E0660F771F881FFA
:1007E000991F4A95D1F708958F929F92AF92BF9229
:1007F000CF92DF92EF92FF924B015C010E94CF03F8
:100800006B017C010E94CF036C197D098E099F0941
:10081000683E734081059105A8F321E0821A910892
:10082000A108B10888EEC80E83E0D81EE11CF11CB7
:1008300081149104A104B10429F7FF90EF90DF9097
:10084000CF90BF90AF909F908F9008952FB7F8945E
:1008500060917D0370917E0380917F03909180036E
:100860002FBF0895AF92BF92CF92DF92EF92FF9287
:100870000F931F93CF93DF936C017B018B01040FC8
:10088000151FEB015E01AE18BF08C017D10759F064
:100890006991D601ED91FC910190F081E02DC601A6
:1008A0000995892B79F7C501DF91CF911F910F91A0
:1008B000FF90EF90DF90CF90BF90AF900895FC0134
:1008C000538D448D252F30E0842F90E0821B930BB5
:1008D000541710F0CF96089501970895FC01918D5B
:1008E000828D981761F0A28DAE0FBF2FB11D5D965E
:1008F0008C91928D9F5F9F73928F90E008958FEF00
:100900009FEF0895FC01918D828D981731F0828DB3
:10091000E80FF11D858D90E008958FEF9FEF08950A
:10092000FC01918D228D892F90E0805C9F4F821B6E
:1009300091098F739927089585E893E00E949004A8
:1009400021E0892B09F420E0822F089580E090E0D7
:10095000892B29F00E949C0481110C9400000895B9
:10096000FC01A48DA80FB92FB11DA35ABF4F2C9124
:10097000848D90E001968F739927848FA689B7891B
:100980002C93A089B1898C91837080648C93938D12
:10099000848D981306C00288F389E02D80818F7DB5
:1009A00080830895EF92FF920F931F93CF93DF936D
:1009B000EC0181E0888F9B8D8C8D98131AC0E8899B
:1009C000F989808185FF15C09FB7F894EE89FF896A
:1009D0006083E889F98980818370806480839FBF08
:1009E00081E090E0DF91CF911F910F91FF90EF9008
:1009F0000895F62E0B8D10E00F5F1F4F0F73112718
:100A0000E02E8C8D8E110CC00FB607FCFACFE88952
:100A1000F989808185FFF5CFCE010E94B004F1CF26
:100A2000EB8DEC0FFD2FF11DE35AFF4FF0829FB7C6
:100A3000F8940B8FEA89FB8980818062CFCF0F9376
:100A40001F93CF93DF938C01D0E0C0E0F801EC0F4F
:100A5000FD1F6491662341F085E893E00E94D20473
:100A6000892B11F02196F2CFCE01DF91CF911F910A
:100A70000F910895CF93DF93EC01888D8823B9F00F
:100A8000AA89BB89E889F9898C9185FD03C0808199
:100A900086FD0DC00FB607FCF7CF8C9185FFF2CF16
:100AA000808185FFEDCFCE010E94B004E9CFDF91B8
:100AB000CF910895BC016E5F7F4FDC01ED91FC91F9
:100AC0000190F081E02D40E0099591E0811190E0E6
:100AD000892F089508958EBD00000DB407FEFDCF47
:100AE0008EB50895DF92EF92FF920F931F93CF93ED
:100AF000DF937C01062FD42E152F80E590E00E9415
:100B0000FE0260E0F70186850E94530382E10E94A5
:100B10006B05CD2DD12F0C0F1D2F111DC017D10727
:100B200021F089910E946B05F9CF61E0F70186857C
:100B3000DF91CF911F910F91FF90EF90DF900C9478
:100B400053031F93CF93DF93EC01162F80E590E0C2
:100B50000E94FE0260E08E850E945303812F806810
:100B60000E946B0580E00E946B05182F61E08E8566
:100B70000E945303812FDF91CF911F9108950F930E
:100B80001F93CF93DF93EC01062F142F80E590E0A5
:100B90000E94FE0260E08E850E945303802F0E9417
:100BA0006B05812F0E946B0561E08E85DF91CF91EF
:100BB0001F910F910C945303CF92DF92EF92FF920B
:100BC0000F931F93CF93DF93EC016B01F42E8901F8
:100BD00040E062E00E94BF0544E06AE0CE010E946E
:100BE000BF0540E864E1CE010E94BF05A6016F2D5C
:100BF000CE010E94720543E062E0CE010E94BF0573
:100C00000E9426046B017C0129E5C20ED11CE11C67
:100C1000F11C6AE0CE010E94A10582FF1BC040E0EA
:100C200062E0CE010E94BF0564E4CE010E94A105EE
:100C3000F801808362E4CE010E94A105F80181835E
:100C400080E0DF91CF911F910F91FF90EF90DF90A7
:100C5000CF9008950E9426046C157D058E059F0592
:100C6000C0F283E0EECF0F931F93CF93DF938C01FD
:100C7000D62FC42F0E94A105C0954C2F48236D2F5D
:100C8000C801DF91CF911F910F910C94BF05FC011A
:100C900001900020E9F73197AF01481B590BBC01C7
:100CA00085E893E00C943204CF93DF930E941F05F4
:100CB000EC0189E791E00E9447068C0F9D1FDF91B0
:100CC000CF9108952091720330917303281739074B
:100CD00031F484EA90E00E94540681E0089586EBA6
:100CE00090E00E94540680E00895CF93DF93D0E017
:100CF000C0E0009719F00E944706EC0189E791E0F7
:100D00000E9447068C0F9D1FDF91CF9108954F924F
:100D10005F926F927F928F929F92AF92BF92CF928B
:100D2000EF92FF920F931F93CF93DF93EC014B0150
:100D3000642E590180E0E114F10411F0F701808183
:100D40007C2C729490EF7922780E40E062E0CE0124
:100D50000E94BF054FE768E0CE010E94BF0540E852
:100D600064E1CE010E94BF05A401662DCE010E9460
:100D70007205472D6AE1CE010E94BF054CE062E09A
:100D8000CE010E94BF056AE1CE010E94A105482F55
:100D900040686AE1CE010E94BF050E9426042B0133
:100DA0003C01F4E24F0E511C611C711C68E0CE0145
:100DB0000E94A105982F907309F077C080FF11C0A1
:100DC00083E0DF91CF911F910F91FF90EF90CF9033
:100DD000BF90AF909F908F907F906F905F904F905B
:100DE00008950E9426046415750586059705F0F29E
:100DF000E7CFA114B10409F451C00115110509F49C
:100E00004DC064E1CE010E94A105982EF8018081B9
:100E1000891508F448C090829920B1F180E590E0EE
:100E20000E94FE0260E08E850E9453039A9482E93C
:100E30000E946B05CC2099F00FEF10E001C0000F6D
:100E4000CA94EAF782E90E946B05902F9095F5010C
:100E5000208192238023982B9083CC24C394AC0CC4
:100E6000B11CC91440F482E90E946B05F50181931D
:100E70005F01C394F6CF80E00E946B05F50180838B
:100E800061E08E850E94530368E1CE010E94A105B6
:100E9000E114F10419F08770F701808382E083FC8C
:100EA00090CF80E08ECF84E08CCF6CE0CE010E94AA
:100EB000A105882E837109F49CCF81E082CFAF9287
:100EC000BF92CF92EF92FF920F931F93CF93DF9336
:100ED00000D000D01F92CDB7DEB75C0182E08D83D9
:100EE00040E064E2C5010E94BF0540E066E2C50142
:100EF0000E94BF0546E268E4C5010E94BF0586E284
:100F00008B838D818230A0F140E86CE1C5010E94A5
:100F1000330687E08C83C12CCE0104967C018E01C0
:100F20000B5F1F4F9E012F5F3F4F41E0BE016D5F82
:100F30007F4FC5010E948706982F811116C08D81B1
:100F40008230B1F48C81811113C081E00F900F9039
:100F50000F900F900F90DF91CF911F910F91FF9005
:100F6000EF90CF90BF90AF90089581E0923071F3F1
:100F700080E0ECCF2F923F924F925F926F927F92E0
:100F80008F929F92AF92BF92CF92DF92EF92FF9299
:100F90000F931F93CF93DF93CDB7DEB72C970FB688
:100FA000F894DEBF0FBECDBF16E0413508F044C156
:100FB000342E5B014C0140E86CE10E94330683E96A
:100FC0008983332029F081E0F5019081953008F480
:100FD00080E044244394512C952D990F990F990F3B
:100FE000D32CD91AD7FCD12C32E0882319F098E8F9
:100FF0009B8333E021E09D2D977009F420E09D2D27
:10100000959595959595290FC9F094E0811193E0F8
:10101000291708F4922FE52DF0E03196EA0DFB1D1B
:10102000232F4191A1E0B0E0AC0FBD1FA20FB11D75
:101030004C932F5F422F431B491798F3882311F0DD
:10104000F8E0DF0E8FE18D150CF081C090E79A83F8
:101050008B819C8189279D8189279E8189278F8308
:101060009E01285F3F4F47E0BE016F5F7F4FC40185
:101070000E94DC05182F8111DFC01A86E3E0EB87A0
:10108000DC86CE0107963C0129E0222ECA844C2D35
:101090004295407F4C0D6AE1C4010E94BF05FE01EC
:1010A0003A967F018E01055F1F4F9301422DBE01CD
:1010B0006F5F7F4FC4010E948706182F823009F0AE
:1010C00065C06CE1C4010E94A10585FDB5C08F71AA
:1010D00009F480E2282F30E04D2DDD0C550B42172E
:1010E00053070CF09DC0D82EE82FE595E595E595C2
:1010F000EF5F982F977081E009F480E0E80F81E0BE
:1011000090E08C0F9D1F8E0F911DFC012150310925
:101110002770332781E090E002C0880F991F2A953D
:10112000E2F79C018081822B80838CCF85E98983C3
:10113000332031F081E0F5019081983008F04CCFF8
:1011400080E04ACF87E9898336E0532EF9CF9D2D81
:1011500097709A878D2D8595859585958E5F282F1B
:101160002295207F290F2A8321E0911101C020E0E0
:10117000222E280E66246394712C6C0E7D1E680E40
:10118000711C99E0981B9B87DC8680CF811154C02D
:1011900080E2D82E9C8590320CF458CF8B81883811
:1011A00009F040C083E093E0E52DF0E03196EA0DD0
:1011B000FB1D980FA1E0B0E0AC0FBD1FA80FB11D43
:1011C0002C9121938F5F8913F5CF5B84E3E05E124E
:1011D0004DC08A8581114AC09E012D5F3F4F41E07D
:1011E000B301C4010E94DC05182F811125C09B8129
:1011F000F301818198133CC09C818281981338C08F
:10120000808182FF12C04394F2E04F1609F48ECF22
:1012100083E0481609F496CF91E0491609F4CFCE41
:1012200015E00AC082E094E0BFCFF5018387842DEA
:10123000880F480E43944082812F2C960FB6F89465
:10124000DEBF0FBECDBFDF91CF911F910F91FF90F9
:10125000EF90DF90CF90BF90AF909F908F907F9056
:101260006F905F904F903F902F90089511E0E4CFE2
:1012700017E0E2CFCF92DF92EF92FF92CF93DF930E
:10128000C0E6D3E084E0C82ED12CE12CF12C0E94E2
:101290005312A70196010E9493136993799383E0F7
:1012A000C836D807A1F71092690310926803C1E00D
:1012B000C0935F0381E090E0909376038093750381
:1012C0000E942604645F71408109910960935B0369
:1012D00070935C0380935D0390935E03C0937803E7
:1012E00088E690E0DF91CF91FF90EF90DF90CF9074
:1012F0000C945406FC0180819181009711F00C94AC
:10130000DD1508950F931F93CF93DF93EC01888130
:101310009981009759F02A813B812617370730F0D1
:1013200081E0DF91CF911F910F9108958B016F5F45
:101330007F4F0E946616009759F0998388831B831C
:101340000A832C813D81232B59F7FC011082E8CFC1
:1013500080E0E7CFEF92FF920F931F93CF93DF933D
:10136000EC017B018A01BA010E948209288139813E
:10137000811114C02115310519F0C9010E94DD1534
:10138000198218821D821C821B821A82CE01DF9173
:10139000CF911F910F91FF90EF9008951D830C83C3
:1013A000B701C9010E943D17F1CF1F920F920FB6EE
:1013B0000F9211242F933F938F939F93AF93BF93DB
:1013C00080917D0390917E03A0917F03B091800373
:1013D00030917C0323E0230F2D3758F50196A11D92
:1013E000B11D20937C0380937D0390937E03A09393
:1013F0007F03B09380038091810390918203A09139
:101400008303B09184030196A11DB11D80938103D4
:1014100090938203A0938303B0938403BF91AF9111
:101420009F918F913F912F910F900FBE0F901F9022
:10143000189526E8230F0296A11DB11DD2CF1F9249
:101440000F920FB60F9211242F933F934F935F93F8
:101450006F937F938F939F93AF93BF93EF93FF937C
:1014600085E893E00E94B004FF91EF91BF91AF91A6
:101470009F918F917F916F915F914F913F912F91AC
:101480000F900FBE0F901F9018951F920F920FB6DE
:101490000F9211242F938F939F93EF93FF93E091DB
:1014A0009503F09196038081E0919B03F0919C035A
:1014B00082FD1BC0908180919E038F5F8F7320916E
:1014C0009F03821741F0E0919E03F0E0EB57FC4F41
:1014D000958F80939E03FF91EF919F918F912F9114
:1014E0000F900FBE0F901F9018958081F4CFE5E804
:1014F000F3E01382128288EE93E0A0E0B0E08483F0
:101500009583A683B78381E691E09183808385EC00
:1015100090E09587848784EC90E09787868780ECBD
:1015200090E0918B808B81EC90E0938B828B82ECAE
:1015300090E0958B848B86EC90E0978B868B118E58
:10154000128E138E148EE2E2F4E083E791E0918331
:1015500080838AE0868789E087870895CF93DF9329
:10156000CDB7DEB7E6970FB6F894DEBF0FBECDBF9E
:10157000789484B5826084BD84B5816084BD85B56E
:10158000826085BD85B5816085BD80916E0081607A
:1015900080936E0010928100809181008260809320
:1015A0008100809181008160809381008091800022
:1015B0008160809380008091B10084608093B1004D
:1015C0008091B00081608093B00080917A00846047
:1015D00080937A0080917A00826080937A00809173
:1015E0007A00816080937A0080917A00806880938D
:1015F0007A001092C100E0919503F091960382E089
:101600008083E0919103F09192031082E091930323
:10161000F091940380E1808310929D03E0919903FF
:10162000F0919A0386E08083E0919703F09198030C
:10163000808180618083E0919703F091980380819D
:1016400088608083E0919703F0919803808180689F
:101650008083E0919703F091980380818F7D808350
:101660001FB7F89480912403811127C0E3E7F5E0C8
:101670008491E7E8F5E09491E82FF0E0EE0FFF1F8A
:10168000E55BFA4FA591B491EC91E92321F461E077
:101690008AE00E94530361E08AE00E9481038CB5D6
:1016A00080618CBD8CB580648CBD61E08DE00E9452
:1016B000810361E08BE00E948103809124038F5FAE
:1016C000809324031FBF61E0809130040E94810356
:1016D00061E0809130040E945303809131048F3F78
:1016E00009F405C360E00E948103809131040E94E7
:1016F0002A03892B09F0FBC261E0809131040E942A
:10170000810360E0809131040E94530383E090E004
:101710000197F1F761E0809131040E94530362E385
:1017200070E080E090E00E94F40340E064E282E236
:1017300094E00E94BF0540E066E282E294E00E94ED
:10174000BF0546E268E482E294E00E94BF0540E8FB
:1017500064E582E294E00E94BF0549EA66E582E220
:1017600094E00E94BF0543E068E582E294E00E94B5
:10177000BF0548EE6AE582E294E00E94BF0540E4BE
:101780006AE282E294E00E94BF054DE362E282E2F7
:1017900094E00E94BF0568E282E294E00E94A10505
:1017A000982F9370933039F0482F436068E282E2BB
:1017B00094E00E94BF0562E088E00E94810362E03D
:1017C0008EE00E94810362E082E00E94810362E079
:1017D00083E00E94810362E084E00E94810362E072
:1017E00085E00E94810362E086E00E94810305E5B6
:1017F00011E09DE5C92E91E0D92EF801F0800E5F31
:101800001F4F61E08F2D0E94810360E08F2D0E94A9
:101810005303C016D10689F788E2E5E1F1E09E01A5
:101820002F5F3F4F1901D90101900D928A95E1F781
:101830008901AE01475D5F4F5EAB4DAB83E3E82EA0
:1018400083E0F82EF80181909190A190B1908F01E2
:1018500020E030E040EB51E4C501B4010E943414B3
:101860009B01AC01C501B4010E94A01420E030E04E
:1018700040E854E40E94D5120E941215F7016193CA
:101880007193819391937F012DA93EA902171307AC
:10189000C9F683E10E94BD03BC01990F880B990B27
:1018A000611571058105910511F00E94A21281E276
:1018B00091E00E94540685ED90E00E945406B4E049
:1018C0004B2E512C612C712C82E294E00E945F0718
:1018D000882309F470C082E294E00E945A058823AC
:1018E00009F469C00E942604009125031091260383
:1018F0002091270330912803601B710B820B930BFF
:10190000603B74408105910508F008C21A82198273
:101910001C821B821E821D8250E040E06BE771E05A
:10192000C1010E94AA098D819E81892BE1F0098164
:101930001A816CE771E0C8010E943417892B09F005
:10194000A5C281E080930A0183E892E00E945406D8
:1019500080917A0390917B03039729F48091770318
:1019600081111092740380E589A71AA69E01255D56
:101970003F4F42E0BE01675D7F4F82E294E00E94EC
:10198000DC0581110FC0C12CF12CE12C10E000E02E
:1019900030E020E044E0BE01675D7F4F82E294E0EA
:1019A0000E94870648E060E182E294E00E943306EC
:1019B000C1010E947A0988E00E942A03892B49F517
:1019C00000917A0310917B0366E970E080E090E07B
:1019D0000E94F4030130110509F0C1C2809179031E
:1019E000882309F4BCC21092790310922903109243
:1019F0002B0310922A0310927B0310927A038CE23D
:101A000095E00E9454066CE271E080E090E00E9454
:101A1000F4038EE00E942A03892B19F500917A03C2
:101A200010917B0366E970E080E090E00E94F4038F
:101A30000230110509F0AFC280917803882309F4C0
:101A4000AAC21092780310927B0310927A038EE060
:101A500095E00E9454066CE271E080E090E00E9404
:101A6000F40382E00E942A03892B19F500917A037E
:101A700010917B0366E970E080E090E00E94F4033F
:101A80000330110509F090C280917703882309F48F
:101A90008BC21092770310927B0310927A0389EE27
:101AA00094E00E9454066CE271E080E090E00E94B5
:101AB000F40380917A0390917B03019709F048C069
:101AC00080917903882309F49AC00E94260400912A
:101AD0002C0310912D0320912E0330912F03601BB6
:101AE000710B820B930B603A7F408105910508F4DE
:101AF00086C080912A0390912B038230910509F4CE
:101B00006CC28330910509F47BC20197B9F40E943D
:101B100053126B017C0189E993E00E941F05C70104
:101B2000B601A30192010E949313660F771F635BB6
:101B30007E4FFB01808191810E9475060E942604E0
:101B400060932C0370932D0380932E0390932F03A7
:101B5000E0907A03F0907B03F2E0EF16F10409F0D5
:101B60004EC080917803882309F4AEC0809175033C
:101B7000909176038130910509F096C280915F03C0
:101B8000882309F4A1C00E9426044B015C018091C6
:101B90005B0390915C03A0915D03B0915E03209183
:101BA0003203B501A401481B590B6A0B7B0BDB0107
:101BB000CA01211138C2883C9105A105B10508F47C
:101BC00083C0E0913003F0913103EE0FFF1FE05A24
:101BD000FC4F0190F081E02DEE0FFF1FEB5AFE4FFE
:101BE00061E080810E94530381E080933203809200
:101BF0005B0390925C03A0925D03B0925E038091C0
:101C00007A0390917B03039709F05EC0809177037C
:101C1000882309F459C080910A01882309F425C357
:101C200083E00E942A035C0184E00E942A036C0185
:101C300085E00E942A037C0186E00E942A038C0131
:101C40008091080190910901019739F4A114B10420
:101C500021F48AED94E00E9454068091060190914F
:101C60000701019739F4C114D10421F489EC94E0FF
:101C70000E9454068091040190910501019739F466
:101C8000E114F10421F48BEB94E00E94540680915E
:101C9000020190910301019739F40115110521F416
:101CA0008DEA94E00E945406B0920901A0920801C6
:101CB000D0920701C0920601F0920501E092040162
:101CC00010930301009302016AE070E080E090E06D
:101CD0000E94F40320E030E0232B09F4F5CD0E94AC
:101CE0009C04882309F4F0CD0E940000EDCD4FE064
:101CF00062E082E294E00E94BF0513E062E370E0DC
:101D000080E090E00E94F40362E082E294E00E94AE
:101D1000A10584FF0ACD115089F707CD0E94260442
:101D200060932503709326038093270390932803E1
:101D300018AA1FA61AAA19AA1CAA1BAA50E040E0BA
:101D40006BE771E0CE018F960E94AA09D12C809199
:101D50002404D81608F060C00D2D10E00E5D1B4F56
:101D6000F80183818031C0F4EBA8FCA8FFEFEF1AE3
:101D7000FF0AB701CE018F960E948209882361F085
:101D80002FA538A98BA99CA963E871E0820F931F46
:101D90000E943D17FCAAEBAAF80183811AA619A696
:101DA0001CA61BA61EA61DA640E1B10190E00E9444
:101DB000AB12F10101900020E9F73197AF01421910
:101DC0005309B101CE0189960E94AA09E9A4FAA497
:101DD000E114F104D9F00DA51EA501151105B1F00E
:101DE0008BA99CA9080F191FB801CE018F960E94DC
:101DF0008209882359F02FA538A98BA99CA9B7017E
:101E0000820F931F0E943D171CAB0BABCE0189962E
:101E10000E947A09D3949BCF0FA518A9011511052B
:101E200071F0F80181918F01882349F0082E000C90
:101E3000990B0E942317F80131978083F2CF8BE52D
:101E400091E00E941F054BA95CA96FA578A985E8C0
:101E500093E00E94320489E791E00E9447068FA533
:101E600098A99A83898389A99AA99C838B838BA932
:101E70009CA99E838D8318AA1FA61AAA19AA1CAA18
:101E80001BAACE018F960E947A094DCD65E871E0BC
:101E9000C8010E943417892B29F410920A018CE59D
:101EA00092E054CD80912903882309F455C06EE84F
:101EB00071E0C8010E943417892BA9F421E030E0B9
:101EC00030932B0320932A0383E492E00E9454066C
:101ED0001092290380912A0390912B03892B41F5BD
:101EE00088E691E022C067E971E0C8010E943417DA
:101EF000892B49F442E050E050932B0340932A038E
:101F000088E292E0E3CF60EA71E0C8010E943417F2
:101F1000892B49F463E070E070932B0360932A03EC
:101F20008FE092E0D3CF8AEE91E00E9454061BCD61
:101F300081E0809379030E942604605A7F408109E2
:101F4000910960932C0370932D0380932E0390933B
:101F50002F0387E891E0E9CF84EC91E0E6CF81E0C0
:101F600090E090937B0380937A0387EA92E00E944B
:101F7000540681E08093290310922B0310922A03C8
:101F80001092790310922C0310922D0310922E03BD
:101F900010922F0338CDE2E0F0E0F0937B03E09362
:101FA0007A030E943A0957CD23E030E030937B0357
:101FB00020937A0381E0809377031092740384E581
:101FC00093E00E94540680910A01882319F088ED5D
:101FD00092E067CD83E293E064CD0E9453126B01DF
:101FE0007C0183E893E00E941F05C701B601A301AD
:101FF00092010E949313660F771F6B5B7E4F99CD02
:102000000E9453126B017C018FE693E00E941F0532
:10201000C701B601A30192010E949313660F771FB7
:10202000635C7E4F86CD80399140A105B10508F4EF
:102030004BCE0091300310913103F801EE0FFF1FDA
:10204000E05AFC4F0190F081E02DEE0FFF1FEB5A9C
:10205000FE4F60E080810E94530310923203809211
:102060005B0390925C03A0925D03B0925E030F5FEE
:102070001F4F1093310300933003043011050CF40B
:1020800023CE10925F03F0927603E09275031092D4
:102090006903109268038DEA93E00E94540610923F
:1020A000310310923003ABCD029709F00DCE81E1E0
:1020B0000E94BD03E3E3F3E010E04191519161918F
:1020C00071919C01241B350B275F3F4F2331310554
:1020D00048F4143058F06FEF7FEF70930101609374
:1020E00000018DCD1F5F1A3041F7F5CFE12E012E93
:1020F000000CFF088091000190910101E816F9069B
:1021000079F0F0920101E09200010E9426046093B0
:102110006E0370936F0380937003909371036FCD80
:102120000E94260480906E0390906F03A09070032D
:10213000B0907103681979098A099B096C3371059C
:102140008105910508F4C0CD0E94260480906A03A1
:1021500090906B03A0906C03B0906D03681979099F
:102160008A099B09683C71058105910508F4ACCD8D
:102170000E94260460936A0370936B0380936C0340
:1021800090936D038EE394E00E941F0519A2105DE9
:1021900018A3CE0180960E94470689E791E00E942D
:1021A0004706F701EE0FFF1FEB5AFE4F108161E06B
:1021B000812F0E94530366E970E080E090E00E9466
:1021C000F40360E0812F0E94530380916803909193
:1021D0006903FC01EE0FFF1FE05AFC4F20813181A3
:1021E000E216F30601F50196909369038093680364
:1021F000049764F088E094E00E94540664EF71E074
:1022000080E090E00E94F4030E943A09EFEFFFEFB4
:10221000F0930101E093000168EC70E080E090E051
:102220000E94F403ECCC86EE93E00E94540664EF27
:1022300071E080E090E00E94F40381E080935F030E
:1022400081E090E090937603809375030E942604CA
:10225000645F71408109910960935B0370935C0333
:1022600080935D0390935E03D1CF809174038111BD
:102270002BCD19821A821B821C8283E0E82EF12C5E
:1022800001E080917703882309F4B4C00E945312BF
:10229000A30192010E949313AB01BC014F5F5F4FFA
:1022A0006F4F7F4FFA013197E20DF31D208121110D
:1022B000EDCF008350937303409372034130510577
:1022C00021F48EE994E00E9454068091720390916B
:1022D0007303029721F48DE894E00E9454068091E4
:1022E000720390917303039721F48FE794E00E94A7
:1022F00054068091720390917303049721F481E74F
:1023000094E00E94540680917703882309F469C001
:1023100083E00E942A03892B91F481E090E00E94DF
:102320006206182F83E00E942A03892B09F04AC015
:102330006AE070E080E090E00E94F403F3CF84E074
:102340000E942A03892B89F482E090E00E946206B1
:10235000182F84E00E942A03892BA1F56AE070E01F
:1023600080E090E00E94F403F4CF85E00E942A030D
:10237000892B89F483E090E00E946206182F85E0A3
:102380000E942A03892BF1F46AE070E080E090E07B
:102390000E94F403F4CF86E00E942A0310E0892B08
:1023A000B9F484E090E00E946206182F86E00E9453
:1023B0002A03892B39F46AE070E080E090E00E9403
:1023C000F403F4CF68E770E080E090E00E94F4034B
:1023D0006AE070E080E090E00E94F403112309F4C9
:1023E00092CF80917703882329F0F1E0EF1AF1086A
:1023F00009F047CF80917703882309F465CC86E5FF
:1024000094E00E94540681E0809374035DCC8F9227
:102410009F92AF92BF92CF92DF92EF92FF92CF93B3
:10242000DF93EC01688179818A819B816115710557
:102430008105910521F464E279ED8BE597E02DE1CA
:1024400033EF41E050E00E94931349015A019B0190
:10245000AC01A7EAB1E40E94B2136B017C01ACEEBF
:10246000B4EFA50194010E94C013C60ED71EE81E4A
:10247000F91EF7FE06C081E0C81AD108E10880E81D
:10248000F80AC882D982EA82FB82C701B6019F7727
:10249000DF91CF91FF90EF90DF90CF90BF90AF9002
:1024A0009F908F9008958F929F92AF92BF92CF92FC
:1024B000DF92EF92FF9260910B0170910C0180917D
:1024C0000D0190910E01611571058105910521F4B1
:1024D00064E279ED8BE597E02DE133EF41E050E0E8
:1024E0000E94931349015A019B01AC01A7EAB1E490
:1024F0000E94B2136B017C01ACEEB4EFA501940114
:102500000E94C013C60ED71EE81EF91EF7FE06C0B5
:1025100081E0C81AD108E10880E8F80AC0920B01EE
:10252000D0920C01E0920D01F0920E01C701B601AC
:102530009F77FF90EF90DF90CF90BF90AF909F90EC
:102540008F90089560930B0170930C0180930D019F
:1025500090930E010895BB27FB015527AA27880FEA
:10256000991FAA1FA41710F0A41B83955051B9F707
:10257000A05DAA3308F0A95DA193009779F7B11186
:10258000B1931192CB010C94C512DC01FC01672FB1
:1025900071917723E1F7329704C07C916D9370833A
:1025A0006291AE17BF07C8F308950E94E8120C9419
:1025B00059130E944B1338F00E94521320F09523B8
:1025C00011F00C9442130C94481311240C948D13A5
:1025D0000E946A1370F3959FC1F3950F50E0551F49
:1025E000629FF001729FBB27F00DB11D639FAA2768
:1025F000F00DB11DAA1F649F6627B00DA11D661FB7
:10260000829F2227B00DA11D621F739FB00DA11DD7
:10261000621F839FA00D611D221F749F3327A00D91
:10262000611D231F849F600D211D822F762F6A2F2D
:1026300011249F5750409AF0F1F088234AF0EE0F92
:10264000FF1FBB1F661F771F881F91505040A9F7BF
:102650009E3F510580F00C9442130C948D135F3F04
:10266000E4F3983ED4F3869577956795B795F795FB
:10267000E7959F5FC1F7FE2B880F911D9695879573
:1026800097F9089597F99F6780E870E060E00895F2
:102690009FEF80EC089500240A941616170618067A
:1026A0000906089500240A94121613061406050656
:1026B0000895092E0394000C11F4882352F0BB0FE7
:1026C00040F4BF2B11F460FF04C06F5F7F4F8F4F4A
:1026D0009F4F089557FD9058440F551F59F05F3F85
:1026E00071F04795880F97FB991F61F09F3F79F034
:1026F00087950895121613061406551FF2CF4695B6
:10270000F1DF08C0161617061806991FF1CF869537
:102710007105610508940895E894BB27662777271B
:10272000CB0197F90895052E97FB1EF400940E94A3
:10273000AA1357FD07D00E94FC1307FC03D04EF4E8
:102740000C94AA1350954095309521953F4F4F4FCB
:102750005F4F089590958095709561957F4F8F4F4D
:102760009F4F08950E941E14A59F900DB49F900D39
:10277000A49F800D911D11240895B7FF0C94B213EE
:102780000E94B213821B930B08952F923F924F9297
:102790005F926F927F928F929F92AF92BF92CF92F1
:1027A000DF92EF92FF920F931F93CF93DF93CDB7FA
:1027B000DEB7CA1BDB0B0FB6F894DEBF0FBECDBF72
:1027C00009942A88398848885F846E847D848C8443
:1027D0009B84AA84B984C884DF80EE80FD800C814C
:1027E0001B81AA81B981CE0FD11D0FB6F894DEBF2F
:1027F0000FBECDBFED010895A1E21A2EAA1BBB1B8F
:10280000FD010DC0AA1FBB1FEE1FFF1FA217B307BC
:10281000E407F50720F0A21BB30BE40BF50B661FD2
:10282000771F881F991F1A9469F760957095809596
:1028300090959B01AC01BD01CF010895A29FB0010D
:10284000B39FC001A39F700D811D1124911DB29FE4
:10285000700D811D1124911D0895EE0FFF1F05902D
:10286000F491E02D09945058BB27AA270E944B14DD
:102870000C9459130E944B1338F00E94521320F00D
:1028800039F49F3F19F426F40C9448130EF4E095A4
:10289000E7FB0C944213E92F0E946A1358F3BA170E
:1028A000620773078407950720F079F4A6F50C9466
:1028B0008C130EF4E0950B2EBA2FA02D0B01B9014D
:1028C00090010C01CA01A0011124FF27591B99F0A6
:1028D000593F50F4503E68F11A16F040A22F232FB2
:1028E000342F4427585FF3CF469537952795A79502
:1028F000F0405395C9F77EF41F16BA0B620B730BA9
:10290000840BBAF09150A1F0FF0FBB1F661F771F19
:10291000881FC2F70EC0BA0F621F731F841F48F4CE
:10292000879577956795B795F7959E3F08F0B0CF57
:102930009395880F08F09927EE0F9795879508953E
:102940000E94B4140C9459130E94521358F00E9420
:102950004B1340F029F45F3F29F00C9442135111BE
:102960000C948D130C9448130E946A1368F39923F6
:10297000B1F3552391F3951B550BBB27AA2762177B
:102980007307840738F09F5F5F4F220F331F441F88
:10299000AA1FA9F335D00E2E3AF0E0E832D09150BC
:1029A0005040E695001CCAF72BD0FE2F29D0660FA9
:1029B000771F881FBB1F261737074807AB07B0E8EC
:1029C00009F0BB0B802DBF01FF2793585F4F3AF0F2
:1029D0009E3F510578F00C9442130C948D135F3F89
:1029E000E4F3983ED4F3869577956795B795F79578
:1029F0009F5FC9F7880F911D9695879597F9089560
:102A0000E1E0660F771F881FBB1F621773078407FB
:102A1000BA0720F0621B730B840BBA0BEE1F88F70A
:102A2000E09508950E94721388F09F5798F0B92F8F
:102A30009927B751B0F0E1F0660F771F881F991FF3
:102A40001AF0BA95C9F714C0B13091F00E948C13F6
:102A5000B1E008950C948C13672F782F8827B85F06
:102A600039F0B93FCCF3869577956795B395D9F74B
:102A70003EF490958095709561957F4F8F4F9F4F55
:102A800008950F931F93CF93DF938230910510F435
:102A900082E090E0E0913404F091350430E020E0F1
:102AA000B0E0A0E0309799F42115310509F44AC04F
:102AB000281B390B24303105D8F58A819B8161159B
:102AC000710589F1FB0193838283FE0111C040816E
:102AD00051810281138148175907E0F048175907BF
:102AE00099F4109761F012960C93129713961C9319
:102AF0003296CF01DF91CF911F910F9108950093EE
:102B0000340410933504F4CF2115310551F04217E8
:102B1000530738F0A901DB019A01BD01DF01F8017B
:102B2000C1CFEF01F9CF9093350480933404CDCF1A
:102B3000FE01E20FF31F81939193225031093983F3
:102B40002883D7CF2091320430913304232B41F4D2
:102B500020911101309112013093330420933204FB
:102B600020910F01309110012115310541F42DB74D
:102B70003EB74091130150911401241B350BE09195
:102B80003204F0913304E217F307A0F42E1B3F0B3D
:102B90002817390778F0AC014E5F5F4F24173507CF
:102BA00048F04E0F5F1F50933304409332048193DB
:102BB00091939FCFF0E0E0E09CCFCF93DF9300971D
:102BC000E9F0FC01329713821282A0913404B09193
:102BD0003504ED0130E020E01097A1F4208131812F
:102BE000820F931F20913204309133042817390744
:102BF00009F061C0F0933304E0933204DF91CF9188
:102C00000895EA01CE17DF07E8F54A815B819E014E
:102C100041155105B1F7E901FB83EA8349915991C7
:102C2000C40FD51FEC17FD0761F4808191810296D6
:102C3000840F951FE90199838883828193819B8307
:102C40008A83F0E0E0E012968D919C9113970097B3
:102C5000B9F52D913C911197CD010296820F931FEA
:102C600020913204309133042817390739F6309710
:102C700051F51092350410923404B0933304A093AC
:102C80003204BCCFD383C28340815181840F951F0E
:102C9000C817D90761F44E5F5F4F88819981480F4B
:102CA000591F518340838A819B819383828321159D
:102CB000310509F0B0CFF0933504E09334049ECF92
:102CC000FD01DC01C0CF13821282D7CFB0E0A0E0BB
:102CD000ECE6F6E10C94C7138C01009751F4CB019C
:102CE0000E9441158C01C801CDB7DEB7E0E10C941C
:102CF000E313FC01E60FF71F9C0122503109E21794
:102D0000F30708F49DC0D901CD91DC911197C61746
:102D1000D70798F0C530D10530F3CE010497861758
:102D2000970708F3C61BD70B2297C193D1936D93D6
:102D30007C93CF010E94DD15D6CF5B01AC1ABD0A92
:102D40004C018C0E9D1EA0913404B0913504512C81
:102D5000412CF12CE12C109731F5809132049091A7
:102D600033048815990509F05CC04616570608F02B
:102D700058C080910F0190911001009741F48DB7D8
:102D80009EB74091130150911401841B950BE817D5
:102D9000F90708F055C0F0933304E0933204F901C9
:102DA00071836083A0CF8D919C91119712966C9046
:102DB000129713967C901397A815B90559F56C01D5
:102DC00042E0C40ED11CCA14DB0420F1AC014A1944
:102DD0005B09DA011296159780F062827382518343
:102DE0004083D9016D937C93E114F10471F0D70114
:102DF0001396FC93EE93129776CF22968C0F9D1F1D
:102E0000F90191838083F301EFCFF0933504E093D0
:102E1000340469CF4816590608F42C017D01D3010A
:102E20009ACFCB010E9441157C01009749F0AE0179
:102E3000B8010E942B17C8010E94DD15870153CFEE
:102E400010E000E050CF9111089581568A5108F4A6
:102E5000805285580895FB01DC0102C001900D925B
:102E600041505040D8F70895FB01DC018D9101904D
:102E700080190110D9F3990B0895FB01DC01019031
:0C2E80000D920020E1F70895F894FFCFB8
:102E8C00FFFF010001000100010001010000000032
:102E9C00003604800000000000000040406666C65A
:102EAC00409A991141000070410000C0410000049B
:102EBC004200004C420000C84200005C43A901C91A
:102ECC0001E60101021F02470263027D029B02B56B
:102EDC0002D70200030F00100012001300000000C4
:102EEC0000D20432045F043A0590046E048204009C
:102EFC00000000BA075F075A050D0A004142423232
:102F0C0038393530003034334630433545003635AA
:102F1C00393046423735003141364343463941005A
:102F2C0031413541333439410041732D7475206280
:102F3C0075206465206C276561752061756A6F75F5
:102F4C00726427687569203F0050656E7365206157
:102F5C00207465206C61766572206C6573206D61E0
:102F6C00696E73202100427261766F2C207072653D
:102F7C006E647320736F696E20646520746F692EA4
:102F8C000041732D7475206269656E20646F726DDB
:102F9C0069206365747465206E756974203F0051F7
:102FAC0075656C20657374206C6520706C7573206E
:102FBC006772616E64206F6365616E206475206D4D
:102FCC006F6E6465203F00506F757271756F69206C
:102FDC006C65206369656C2065737420626C657523
:102FEC00203F005175656C20616E696D616C2076B7
:102FFC006974206C61206E756974203F004F7520D8
:10300C0073652074726F757665206C6120746F75B2
:10301C00722045696666656C203F0041732D74759E
:10302C0020626F7567652061756A6F7572642768B9
:10303C007569203F00426F756765722C20632765A8
:10304C00737420626F6E20706F7572206C612073C8
:10305C00616E746520210041732D74752066616961
:10306C007420756E207065752064652073706F72A6
:10307C00742061756A6F75726427687569203F00EA
:10308C0046616972652064752073706F7274206478
:10309C006F6E6E65206465206C27656E657267695E
:0430AC00652021007A
:00000001FF
