:100000000C945D000C9485000C9485000C94850084
:100010000C9485000C9485000C9485000C9485004C
:100020000C9485000C9485000C9485000C9485003C
:100030000C9485000C9485000C9485000C9485002C
:100040000C9402030C9485000C9472030C944C03E2
:100050000C9485000C9485000C9485000C9485000C
:100060000C9485000C9485000000000024002700FB
:100070002A0000000000250028002B0004040404CE
:100080000404040402020202020203030303030342
:10009000010204081020408001020408102001021F
:1000A00004081020000000080002010000030407FB
:1000B0000000000000000000630511241FBECFEF08
:1000C000D8E0DEBFCDBF11E0A0E0B1E0E6EDF0E1A9
:1000D00002C005900D92AA3CB107D9F722E0AAEC24
:1000E000B1E001C01D92A83AB207E1F710E0CDE5FA
:1000F000D0E004C02197FE010E949706CC35D107BD
:10010000C9F70E94A4030C9469080C94000080E4D1
:1001100080937C0080917A00806480937A00809143
:100120007A0086FDFCCF8091780090917900089547
:1001300090E0FC01EC55FF4F2491FC01E057FF4F8C
:100140003491FC01E458FF4FE491EE23C9F02223DF
:1001500039F0233001F1A8F4213019F1223029F1CE
:10016000F0E0EE0FFF1FEE58FF4FA591B4918FB74F
:10017000F894EC91611126C030953E233C938FBFDB
:1001800008952730A9F02830C9F0243049F780912C
:1001900080008F7D03C0809180008F7780938000E6
:1001A000DFCF84B58F7784BDDBCF84B58F7DFBCF68
:1001B0008091B0008F778093B000D2CF8091B00053
:1001C0008F7DF9CF3E2BDACF3FB7F89480910702AD
:1001D00090910802A0910902B0910A0226B5A89B4D
:1001E00005C02F3F19F00196A11DB11D3FBFBA2FC9
:1001F000A92F982F8827BC01CD01620F711D811D89
:10020000911D42E0660F771F881F991F4A95D1F70D
:1002100008958F929F92AF92BF92CF92DF92EF920A
:10022000FF926B017C010E94E4004B015C01C11450
:10023000D104E104F104B9F00E94E40068197909DD
:100240008A099B09683E73408105910580F321E08E
:10025000C21AD108E108F10888EE880E83E0981EE2
:10026000A11CB11CE4CFFF90EF90DF90CF90BF9026
:10027000AF909F908F900895AF92BF92CF92DF92F0
:10028000EF92FF920F931F93CF93DF936C017B014B
:100290008B01040F151FEB015E01AE18BF08C017DC
:1002A000D10759F06991D601ED91FC910190F0814F
:1002B000E02DC6010995892B79F7C501DF91CF9112
:1002C0001F910F91FF90EF90DF90CF90BF90AF9074
:1002D0000895FC01538D448D252F30E0842F90E04C
:1002E000821B930B541710F0CF9608950197089531
:1002F000FC01918D828D981761F0A28DAE0FBF2FFA
:10030000B11D5D968C91928D9F5F9F73928F90E04F
:1003100008958FEF9FEF0895FC01918D828D9817BE
:1003200031F0828DE80FF11D858D90E008958FEFFB
:100330009FEF0895FC01918D228D892F90E0805CC4
:100340009F4F821B91098F73992708958BE092E04C
:100350000E949A0121E0892B09F420E0822F089560
:1003600080E090E0892B29F00E94A60181110C9475
:1003700000000895FC01A48DA80FB92FB11DA35A48
:10038000BF4F2C91848D90E001968F739927848FB5
:10039000A689B7892C93A089B1898C9183708064D8
:1003A0008C93938D848D981306C00288F389E02D79
:1003B00080818F7D80830895EF92FF920F931F932A
:1003C000CF93DF93EC0181E0888F9B8D8C8D981308
:1003D0001AC0E889F989808185FF15C09FB7F89414
:1003E000EE89FF896083E889F98980818370806460
:1003F00080839FBF81E090E0DF91CF911F910F91AB
:10040000FF90EF900895F62E0B8D10E00F5F1F4FB9
:100410000F731127E02E8C8D8E110CC00FB607FCC8
:10042000FACFE889F989808185FFF5CFCE010E9456
:10043000BA01F1CFEB8DEC0FFD2FF11DE35AFF4F09
:10044000F0829FB7F8940B8FEA89FB8980818062E4
:10045000CFCFCF93DF93EC01888D8823B9F0AA89A1
:10046000BB89E889F9898C9185FD03C0808186FD6F
:100470000DC00FB607FCF7CF8C9185FFF2CF8081BE
:1004800085FFEDCFCE010E94BA01E9CFDF91CF9178
:1004900008951F93CF93DF93EB01880F991FFC0101
:1004A000E25CFE4F108161E0812F0E949800BE0146
:1004B000DD0F880B990B0E94090160E0812FDF910D
:1004C000CF911F910C949800FC0101900020E9F756
:1004D0003197AF01481B590BBC018BE092E00C94A3
:1004E0003C018F929F92AF92BF920F931F93CF9335
:1004F000DF93CDB7DEB7A1970FB6F894DEBF0FBE7E
:10050000CDBF19A2423008F44AE08E010F5D1F4FA3
:10051000842E912CB12CA12CA50194010E94660679
:10052000E62FB901CA01EA30F4F4E05DD801EE9398
:100530008D01232B242B252B79F790E080E0109759
:1005400019F0CD010E946402A1960FB6F894DEBFA7
:100550000FBECDBFDF91CF911F910F91BF90AF9094
:100560009F908F900895E95CE1CFCF92DF92EF9258
:10057000FF92CF93DF936B017C016DE28BE092E001
:100580000E94DC01EC0166277727CB016C197D09FD
:100590008E099F094AE00E9471028C0F9D1FDF9116
:1005A000CF91FF90EF90DF90CF900895CF93DF939E
:1005B0000E946402EC018CE491E00E9464028C0FC2
:1005C0009D1FDF91CF910895CF93DF938FE491E04A
:1005D0000E94D602C2EFD1E060E971E08991999161
:1005E0000E94490268EC70E080E090E00E940901FE
:1005F00081E0CC3FD80781F789E591E0DF91CF9189
:100600000C94D6021F920F920FB60F9211242F93C3
:100610003F938F939F93AF93BF93809103029091E9
:100620000402A0910502B09106023091020223E07B
:10063000230F2D3758F50196A11DB11D20930202FD
:100640008093030290930402A0930502B0930602E4
:100650008091070290910802A0910902B0910A02CC
:100660000196A11DB11D8093070290930802A093EB
:100670000902B0930A02BF91AF919F918F913F9170
:100680002F910F900FBE0F901F90189526E8230F03
:100690000296A11DB11DD2CF1F920F920FB60F92DD
:1006A00011242F933F934F935F936F937F938F9377
:1006B0009F93AF93BF93EF93FF938BE092E00E94E1
:1006C000BA01FF91EF91BF91AF919F918F917F916F
:1006D0006F915F914F913F912F910F900FBE0F90AF
:1006E0001F9018951F920F920FB60F9211242F93FF
:1006F0008F939F93EF93FF93E0911B02F0911C0265
:100700008081E0912102F091220282FD1BC0908144
:10071000809124028F5F8F7320912502821741F010
:10072000E0912402F0E0E55FFD4F958F8093240275
:10073000FF91EF919F918F912F910F900FBE0F908E
:100740001F9018958081F4CFCF93DF93CDB7DEB79C
:10075000A8970FB6F894DEBF0FBECDBF789484B5CE
:10076000826084BD84B5816084BD85B5826085BDAD
:1007700085B5816085BD80916E00816080936E003B
:10078000109281008091810082608093810080912D
:1007900081008160809381008091800081608093DE
:1007A00080008091B10084608093B1008091B0009E
:1007B00081608093B00080917A00846080937A0099
:1007C00080917A00826080937A0080917A008160C3
:1007D00080937A0080917A00806880937A001092EA
:1007E000C100E0911B02F0911C0282E08083E09145
:1007F0001702F09118021082E0911902F0911A028A
:1008000080E1808310922302E0911F02F091200288
:1008100086E08083E0911D02F0911E02808180615C
:100820008083E0911D02F0911E02808188608083A8
:10083000E0911D02F0911E02808180688083E0912A
:100840001D02F0911E0280818F7D80830EE311E0F6
:10085000F801819191918F019927FC01E057FF4F99
:10086000249184589F4FFC018491882399F090E053
:10087000880F991FFC01E859FF4FA591B491FC0125
:10088000EE58FF4F859194918FB7F894EC91E22B3D
:10089000EC938FBF60E0F801329780810E9498004E
:1008A000F1E00C341F07A1F688E2E4E0F1E0DE019C
:1008B000119601900D928A95E1F78E010F5F1F4FFF
:1008C0003E0189E2680E711C7AECE72E71E0F72E8A
:1008D000F80181909190A190B1908F0120E030E0DB
:1008E00040EB51E4C501B4010E949E069B01AC019E
:1008F000C501B4010E940A0720E030E040E854E45A
:100900000E94FC070E947C07F70161937193819319
:1009100091937F0106151705D9F664EF71E080E029
:1009200090E00E9409010E948700BC01990F880B8A
:10093000990B611571058105910511F00E942B0637
:1009400042EFE42E41E0F42E5CEFA52E51E0B52EEF
:10095000870167E0462E512C612C712C0E94DC052A
:10096000A30192010E943406F801619371938F01F3
:10097000AE16BF0699F78BE691E00E94D602F7010A
:10098000619171917F016F5F7F4F072E000C880B83
:10099000990B97FF75C00E94B5028AE991E00E9409
:1009A00064020E151F0559F78CE491E00E94640261
:1009B0000E94E40230E0E32E30E0F32E0E94870034
:1009C000AC01092E000C660B770B4093FE0150938F
:1009D000FF016093000270930102EAECF1E000E095
:1009E00041915191619171919C01241B350B275FBD
:1009F0003F4F2331310508F047C0073008F048C0A9
:100A000089E891E00E946402002E000C110BB801ED
:100A10006F5F7F4F072E000C880B990B4AE00E94F6
:100A200071028CE491E00E94640268EC70E0C801FD
:100A30000E9449028091FC019091FD01FC01EE0FA2
:100A4000FF1FEE50FE4F208131810217130761F521
:100A500001969093FD018093FC010597CCF08CE901
:100A600091E00E94D60268EE73E080E090E00E9480
:100A700009011092FD011092FC010E94E40208C0DD
:100A80004AE00E94710289CF0F5F0A3009F0A8CFB7
:100A9000E114F10409F492CF0E94A601882309F41D
:100AA0008DCF0E9400008ACF84EB91E00E94D60295
:100AB0001092FD011092FC0168EE73E080E090E07E
:100AC0000E940901DACFEBE0F2E01382128288EE95
:100AD00093E0A0E0B0E084839583A683B78380E3AE
:100AE00091E09183808385EC90E09587848784EC06
:100AF00090E09787868780EC90E0918B808B81ECEB
:100B000090E0938B828B82EC90E0958B848B86ECCB
:100B100090E0978B868B118E128E138E148E089513
:100B20008F929F92AF92BF92CF92DF92EF92FF92FD
:100B3000CF93DF93EC01688179818A819B81611574
:100B400071058105910521F464E279ED8BE597E06B
:100B50002DE133EF41E050E00E94340649015A0193
:100B60009B01AC01A7EAB1E40E9453066B017C0132
:100B7000ACEEB4EFA50194010E946106C60ED71E2B
:100B8000E81EF91EF7FE06C081E0C81AD108E10888
:100B900080E8F80AC882D982EA82FB82C701B601DE
:100BA0009F77DF91CF91FF90EF90DF90CF90BF9034
:100BB000AF909F908F9008958F929F92AF92BF9227
:100BC000CF92DF92EF92FF9260910001709101014C
:100BD00080910201909103016115710581059105D4
:100BE00021F464E279ED8BE597E02DE133EF41E00C
:100BF00050E00E94340649015A019B01AC01A7EA6A
:100C0000B1E40E9453066B017C01ACEEB4EFA50188
:100C100094010E946106C60ED71EE81EF91EF7FE5B
:100C200006C081E0C81AD108E10880E8F80AC0923D
:100C30000001D0920101E0920201F0920301C7018C
:100C4000B6019F77FF90EF90DF90CF90BF90AF906D
:100C50009F908F900895609300017093010180939D
:100C60000201909303010895052E97FB1EF4009452
:100C70000E944B0657FD07D00E94660607FC03D072
:100C80004EF40C944B0650954095309521953F4F6E
:100C90004F4F5F4F089590958095709561957F4F68
:100CA0008F4F9F4F08950E948806A59F900DB49F77
:100CB000900DA49F800D911D11240895B7FF0C94F1
:100CC00053060E945306821B930B0895A1E21A2E2D
:100CD000AA1BBB1BFD010DC0AA1FBB1FEE1FFF1FE0
:100CE000A217B307E407F50720F0A21BB30BE40B30
:100CF000F50B661F771F881F991F1A9469F7609577
:100D00007095809590959B01AC01BD01CF01089530
:100D1000A29FB001B39FC001A39F700D811D11243C
:100D2000911DB29F700D811D1124911D0895EE0F2C
:100D3000FF1F0590F491E02D09945058BB27AA2776
:100D40000E94B5060C94C2070E94B40738F00E94B6
:100D5000BB0720F039F49F3F19F426F40C94B10737
:100D60000EF4E095E7FB0C94AB07E92F0E94D30744
:100D700058F3BA17620773078407950720F079F4D0
:100D8000A6F50C94F5070EF4E0950B2EBA2FA02DC6
:100D90000B01B90190010C01CA01A0011124FF2728
:100DA000591B99F0593F50F4503E68F11A16F04023
:100DB000A22F232F342F4427585FF3CF4695379522
:100DC0002795A795F0405395C9F77EF41F16BA0BE7
:100DD000620B730B840BBAF09150A1F0FF0FBB1F95
:100DE000661F771F881FC2F70EC0BA0F621F731FDE
:100DF000841F48F4879577956795B795F7959E3F3B
:100E000008F0B0CF9395880F08F09927EE0F9795CB
:100E1000879508950E941E070C94C2070E94BB0785
:100E200058F00E94B40740F029F45F3F29F00C9479
:100E3000AB0751110C94F6070C94B1070E94D3072D
:100E400068F39923B1F3552391F3951B550BBB27F9
:100E5000AA2762177307840738F09F5F5F4F220F3E
:100E6000331F441FAA1FA9F335D00E2E3AF0E0E835
:100E700032D091505040E695001CCAF72BD0FE2F7F
:100E800029D0660F771F881FBB1F26173707480713
:100E9000AB07B0E809F0BB0B802DBF01FF279358CB
:100EA0005F4F3AF09E3F510578F00C94AB070C94DD
:100EB000F6075F3FE4F3983ED4F386957795679500
:100EC000B795F7959F5FC9F7880F911D9695879500
:100ED00097F90895E1E0660F771F881FBB1F62171F
:100EE00073078407BA0720F0621B730B840BBA0BDD
:100EF000EE1F88F7E09508950E94DB0788F09F5762
:100F000098F0B92F9927B751B0F0E1F0660F771F2D
:100F1000881F991F1AF0BA95C9F714C0B13091F023
:100F20000E94F507B1E008950C94F507672F782F1C
:100F30008827B85F39F0B93FCCF3869577956795E8
:100F4000B395D9F73EF490958095709561957F4F54
:100F50008F4F9F4F089597F99F6780E870E060E09A
:100F600008959FEF80EC089500240A941616170642
:100F700018060906089500240A941216130614068A
:100F800005060895092E0394000C11F4882352F0ED
:100F9000BB0F40F4BF2B11F460FF04C06F5F7F4FA5
:100FA0008F4F9F4F089557FD9058440F551F59F08C
:100FB0005F3F71F04795880F97FB991F61F09F3F46
:100FC00079F087950895121613061406551FF2CF6F
:100FD0004695F1DF08C0161617061806991FF1CFBF
:100FE00086957105610508940895E894BB276627E6
:100FF0007727CB0197F908950E940F080C94C20738
:101000000E94B40738F00E94BB0720F0952311F02E
:101010000C94AB070C94B10711240C94F6070E94B2
:10102000D30770F3959FC1F3950F50E0551F629F52
:10103000F001729FBB27F00DB11D639FAA27F00D31
:10104000B11DAA1F649F6627B00DA11D661F829F58
:101050002227B00DA11D621F739FB00DA11D621F3D
:10106000839FA00D611D221F749F3327A00D611D5A
:10107000231F849F600D211D822F762F6A2F11243C
:101080009F5750409AF0F1F088234AF0EE0FFF1F6F
:10109000BB1F661F771F881F91505040A9F79E3FC6
:1010A000510580F00C94AB070C94F6075F3FE4F316
:1010B000983ED4F3869577956795B795F795E7951C
:1010C0009F5FC1F7FE2B880F911D9695879597F925
:0610D0000895F894FFCF23
:1010D6000100000000000000000040406666C640B7
:1010E6009A991141000070410000C041000004427D
:1010F60000004C420000C84200005C4300000000B3
:10110600DC013C01690129029A0178018C010F007A
:101116001000110012000600070013000D0A00500F
:1011260061747465726E203A00C38020766F7573A1
:10113600206465206A6F75657221003D3D3D205033
:1011460061747465726E20C3A020726570726F64DC
:1011560075697265203D3D3D00546F756368652075
:101166006170707579C3A965203A20004272617674
:101176006F21205061747465726E20636F6D706CA0
:1011860065742E0045727265757221205265636F13
:0A1196006D6D656E63657A2E000032
:00000001FF
